{
  "_format": "hh-sol-artifact-1",
  "contractName": "Voting",
  "sourceName": "contracts/Voting.sol",
  "abi": [
    {
      "inputs": [
        {
          "internalType": "string[]",
          "name": "_candidateNames",
          "type": "string[]"
        },
        {
          "internalType": "uint256",
          "name": "_durationInMinutes",
          "type": "uint256"
        }
      ],
      "stateMutability": "nonpayable",
      "type": "constructor"
    },
    {
      "inputs": [
        {
          "internalType": "string",
          "name": "_name",
          "type": "string"
        }
      ],
      "name": "addCandidate",
      "outputs": [],
      "stateMutability": "nonpayable",
      "type": "function"
    },
    {
      "inputs": [
        {
          "internalType": "uint256",
          "name": "",
          "type": "uint256"
        }
      ],
      "name": "candidates",
      "outputs": [
        {
          "internalType": "string",
          "name": "name",
          "type": "string"
        },
        {
          "internalType": "uint256",
          "name": "voteCount",
          "type": "uint256"
        }
      ],
      "stateMutability": "view",
      "type": "function"
    },
    {
      "inputs": [],
      "name": "getAllVotesOfCandiates",
      "outputs": [
        {
          "components": [
            {
              "internalType": "string",
              "name": "name",
              "type": "string"
            },
            {
              "internalType": "uint256",
              "name": "voteCount",
              "type": "uint256"
            }
          ],
          "internalType": "struct Voting.Candidate[]",
          "name": "",
          "type": "tuple[]"
        }
      ],
      "stateMutability": "view",
      "type": "function"
    },
    {
      "inputs": [],
      "name": "getRemainingTime",
      "outputs": [
        {
          "internalType": "uint256",
          "name": "",
          "type": "uint256"
        }
      ],
      "stateMutability": "view",
      "type": "function"
    },
    {
      "inputs": [],
      "name": "getVotingStatus",
      "outputs": [
        {
          "internalType": "bool",
          "name": "",
          "type": "bool"
        }
      ],
      "stateMutability": "view",
      "type": "function"
    },
    {
      "inputs": [
        {
          "internalType": "uint256",
          "name": "_candidateIndex",
          "type": "uint256"
        }
      ],
      "name": "vote",
      "outputs": [],
      "stateMutability": "nonpayable",
      "type": "function"
    },
    {
      "inputs": [
        {
          "internalType": "uint256",
          "name": "_candidateIndex",
          "type": "uint256"
        }
      ],
      "name": "vote1",
      "outputs": [],
      "stateMutability": "nonpayable",
      "type": "function"
    },
    {
      "inputs": [
        {
          "internalType": "uint256",
          "name": "_candidateIndex",
          "type": "uint256"
        }
      ],
      "name": "vote2",
      "outputs": [],
      "stateMutability": "nonpayable",
      "type": "function"
    },
    {
      "inputs": [
        {
          "internalType": "address",
          "name": "",
          "type": "address"
        }
      ],
      "name": "voters",
      "outputs": [
        {
          "internalType": "bool",
          "name": "",
          "type": "bool"
        }
      ],
      "stateMutability": "view",
      "type": "function"
    },
    {
      "inputs": [],
      "name": "votingEnd",
      "outputs": [
        {
          "internalType": "uint256",
          "name": "",
          "type": "uint256"
        }
      ],
      "stateMutability": "view",
      "type": "function"
    },
    {
      "inputs": [],
      "name": "votingStart",
      "outputs": [
        {
          "internalType": "uint256",
          "name": "",
          "type": "uint256"
        }
      ],
      "stateMutability": "view",
      "type": "function"
    }
  ],
  "bytecode": "0x60806040523480156200001157600080fd5b50604051620019d0380380620019d08339818101604052810190620000379190620004da565b60005b8251811015620000e3576000604051806040016040528085848151811062000067576200006662000540565b5b60200260200101518152602001600081525090806001815401808255809150506001900390600052602060002090600202016000909190919091506000820151816000019080519060200190620000c092919062000156565b506020820151816001015550508080620000da906200059e565b9150506200003a565b5033600160006101000a81548173ffffffffffffffffffffffffffffffffffffffff021916908373ffffffffffffffffffffffffffffffffffffffff16021790555042600381905550603c816200013b9190620005ec565b426200014891906200064d565b60048190555050506200070f565b8280546200016490620006d9565b90600052602060002090601f016020900481019282620001885760008555620001d4565b82601f10620001a357805160ff1916838001178555620001d4565b82800160010185558215620001d4579182015b82811115620001d3578251825591602001919060010190620001b6565b5b509050620001e39190620001e7565b5090565b5b8082111562000202576000816000905550600101620001e8565b5090565b6000604051905090565b600080fd5b600080fd5b600080fd5b6000601f19601f8301169050919050565b7f4e487b7100000000000000000000000000000000000000000000000000000000600052604160045260246000fd5b6200026a826200021f565b810181811067ffffffffffffffff821117156200028c576200028b62000230565b5b80604052505050565b6000620002a162000206565b9050620002af82826200025f565b919050565b600067ffffffffffffffff821115620002d257620002d162000230565b5b602082029050602081019050919050565b600080fd5b600080fd5b600067ffffffffffffffff8211156200030b576200030a62000230565b5b62000316826200021f565b9050602081019050919050565b60005b838110156200034357808201518184015260208101905062000326565b8381111562000353576000848401525b50505050565b6000620003706200036a84620002ed565b62000295565b9050828152602081018484840111156200038f576200038e620002e8565b5b6200039c84828562000323565b509392505050565b600082601f830112620003bc57620003bb6200021a565b5b8151620003ce84826020860162000359565b91505092915050565b6000620003ee620003e884620002b4565b62000295565b90508083825260208201905060208402830185811115620004145762000413620002e3565b5b835b818110156200046257805167ffffffffffffffff8111156200043d576200043c6200021a565b5b8086016200044c8982620003a4565b8552602085019450505060208101905062000416565b5050509392505050565b600082601f8301126200048457620004836200021a565b5b815162000496848260208601620003d7565b91505092915050565b6000819050919050565b620004b4816200049f565b8114620004c057600080fd5b50565b600081519050620004d481620004a9565b92915050565b60008060408385031215620004f457620004f362000210565b5b600083015167ffffffffffffffff81111562000515576200051462000215565b5b62000523858286016200046c565b92505060206200053685828601620004c3565b9150509250929050565b7f4e487b7100000000000000000000000000000000000000000000000000000000600052603260045260246000fd5b7f4e487b7100000000000000000000000000000000000000000000000000000000600052601160045260246000fd5b6000620005ab826200049f565b91507fffffffffffffffffffffffffffffffffffffffffffffffffffffffffffffffff821415620005e157620005e06200056f565b5b600182019050919050565b6000620005f9826200049f565b915062000606836200049f565b9250817fffffffffffffffffffffffffffffffffffffffffffffffffffffffffffffffff04831182151516156200064257620006416200056f565b5b828202905092915050565b60006200065a826200049f565b915062000667836200049f565b9250827fffffffffffffffffffffffffffffffffffffffffffffffffffffffffffffffff038211156200069f576200069e6200056f565b5b828201905092915050565b7f4e487b7100000000000000000000000000000000000000000000000000000000600052602260045260246000fd5b60006002820490506001821680620006f257607f821691505b60208210811415620007095762000708620006aa565b5b50919050565b6112b1806200071f6000396000f3fe608060405234801561001057600080fd5b50600436106100a95760003560e01c80634dadf7d9116100715780634dadf7d914610153578063581c281c1461016f5780637bdb46b51461018d57806385a38635146101a9578063a3ec138d146101c7578063efb98bcf146101f7576100a9565b80630121b93f146100ae578063101158af146100ca5780633477ee2e146100e8578063462e91ec146101195780634d6bda5f14610135575b600080fd5b6100c860048036038101906100c39190610b22565b610215565b005b6100d261037f565b6040516100df9190610b5e565b60405180910390f35b61010260048036038101906100fd9190610b22565b610385565b604051610110929190610c12565b60405180910390f35b610133600480360381019061012e9190610d77565b610441565b005b61013d610508565b60405161014a9190610f18565b60405180910390f35b61016d60048036038101906101689190610b22565b610603565b005b6101776107a8565b6040516101849190610f55565b60405180910390f35b6101a760048036038101906101a29190610b22565b6107c2565b005b6101b16109a2565b6040516101be9190610b5e565b60405180910390f35b6101e160048036038101906101dc9190610fce565b6109a8565b6040516101ee9190610f55565b60405180910390f35b6101ff6109c8565b60405161020c9190610b5e565b60405180910390f35b600260003373ffffffffffffffffffffffffffffffffffffffff1673ffffffffffffffffffffffffffffffffffffffff16815260200190815260200160002060009054906101000a900460ff16156102a2576040517f08c379a000000000000000000000000000000000000000000000000000000000815260040161029990611047565b60405180910390fd5b60008054905081106102e9576040517f08c379a00000000000000000000000000000000000000000000000000000000081526004016102e0906110b3565b60405180910390fd5b600081815481106102fd576102fc6110d3565b5b9060005260206000209060020201600101600081548092919061031f90611131565b91905055506001600260003373ffffffffffffffffffffffffffffffffffffffff1673ffffffffffffffffffffffffffffffffffffffff16815260200190815260200160002060006101000a81548160ff02191690831515021790555050565b60035481565b6000818154811061039557600080fd5b90600052602060002090600202016000915090508060000180546103b8906111a9565b80601f01602080910402602001604051908101604052809291908181526020018280546103e4906111a9565b80156104315780601f1061040657610100808354040283529160200191610431565b820191906000526020600020905b81548152906001019060200180831161041457829003601f168201915b5050505050908060010154905082565b600160009054906101000a900473ffffffffffffffffffffffffffffffffffffffff1673ffffffffffffffffffffffffffffffffffffffff163373ffffffffffffffffffffffffffffffffffffffff161461049b57600080fd5b600060405180604001604052808381526020016000815250908060018154018082558091505060019003906000526020600020906002020160009091909190915060008201518160000190805190602001906104f8929190610a35565b5060208201518160010155505050565b60606000805480602002602001604051908101604052809291908181526020016000905b828210156105fa578382906000526020600020906002020160405180604001604052908160008201805461055f906111a9565b80601f016020809104026020016040519081016040528092919081815260200182805461058b906111a9565b80156105d85780601f106105ad576101008083540402835291602001916105d8565b820191906000526020600020905b8154815290600101906020018083116105bb57829003601f168201915b505050505081526020016001820154815250508152602001906001019061052c565b50505050905090565b600260003373ffffffffffffffffffffffffffffffffffffffff1673ffffffffffffffffffffffffffffffffffffffff16815260200190815260200160002060009054906101000a900460ff1615610690576040517f08c379a000000000000000000000000000000000000000000000000000000000815260040161068790611047565b60405180910390fd5b60008054905081106106d7576040517f08c379a00000000000000000000000000000000000000000000000000000000081526004016106ce906110b3565b60405180910390fd5b600081815481106106eb576106ea6110d3565b5b9060005260206000209060020201600101600081548092919061070d90611131565b919050555060008181548110610726576107256110d3565b5b9060005260206000209060020201600101600081548092919061074890611131565b91905055506001600260003373ffffffffffffffffffffffffffffffffffffffff1673ffffffffffffffffffffffffffffffffffffffff16815260200190815260200160002060006101000a81548160ff02191690831515021790555050565b600060035442101580156107bd575060045442105b905090565b600260003373ffffffffffffffffffffffffffffffffffffffff1673ffffffffffffffffffffffffffffffffffffffff16815260200190815260200160002060009054906101000a900460ff161561084f576040517f08c379a000000000000000000000000000000000000000000000000000000000815260040161084690611047565b60405180910390fd5b6000805490508110610896576040517f08c379a000000000000000000000000000000000000000000000000000000000815260040161088d906110b3565b60405180910390fd5b600081815481106108aa576108a96110d3565b5b906000526020600020906002020160010160008154809291906108cc90611131565b9190505550600081815481106108e5576108e46110d3565b5b9060005260206000209060020201600101600081548092919061090790611131565b9190505550600081815481106109205761091f6110d3565b5b9060005260206000209060020201600101600081548092919061094290611131565b91905055506001600260003373ffffffffffffffffffffffffffffffffffffffff1673ffffffffffffffffffffffffffffffffffffffff16815260200190815260200160002060006101000a81548160ff02191690831515021790555050565b60045481565b60026020528060005260406000206000915054906101000a900460ff1681565b6000600354421015610a0f576040517f08c379a0000000000000000000000000000000000000000000000000000000008152600401610a0690611227565b60405180910390fd5b6004544210610a215760009050610a32565b42600454610a2f9190611247565b90505b90565b828054610a41906111a9565b90600052602060002090601f016020900481019282610a635760008555610aaa565b82601f10610a7c57805160ff1916838001178555610aaa565b82800160010185558215610aaa579182015b82811115610aa9578251825591602001919060010190610a8e565b5b509050610ab79190610abb565b5090565b5b80821115610ad4576000816000905550600101610abc565b5090565b6000604051905090565b600080fd5b600080fd5b6000819050919050565b610aff81610aec565b8114610b0a57600080fd5b50565b600081359050610b1c81610af6565b92915050565b600060208284031215610b3857610b37610ae2565b5b6000610b4684828501610b0d565b91505092915050565b610b5881610aec565b82525050565b6000602082019050610b736000830184610b4f565b92915050565b600081519050919050565b600082825260208201905092915050565b60005b83811015610bb3578082015181840152602081019050610b98565b83811115610bc2576000848401525b50505050565b6000601f19601f8301169050919050565b6000610be482610b79565b610bee8185610b84565b9350610bfe818560208601610b95565b610c0781610bc8565b840191505092915050565b60006040820190508181036000830152610c2c8185610bd9565b9050610c3b6020830184610b4f565b9392505050565b600080fd5b600080fd5b7f4e487b7100000000000000000000000000000000000000000000000000000000600052604160045260246000fd5b610c8482610bc8565b810181811067ffffffffffffffff82111715610ca357610ca2610c4c565b5b80604052505050565b6000610cb6610ad8565b9050610cc28282610c7b565b919050565b600067ffffffffffffffff821115610ce257610ce1610c4c565b5b610ceb82610bc8565b9050602081019050919050565b82818337600083830152505050565b6000610d1a610d1584610cc7565b610cac565b905082815260208101848484011115610d3657610d35610c47565b5b610d41848285610cf8565b509392505050565b600082601f830112610d5e57610d5d610c42565b5b8135610d6e848260208601610d07565b91505092915050565b600060208284031215610d8d57610d8c610ae2565b5b600082013567ffffffffffffffff811115610dab57610daa610ae7565b5b610db784828501610d49565b91505092915050565b600081519050919050565b600082825260208201905092915050565b6000819050602082019050919050565b600082825260208201905092915050565b6000610e0882610b79565b610e128185610dec565b9350610e22818560208601610b95565b610e2b81610bc8565b840191505092915050565b610e3f81610aec565b82525050565b60006040830160008301518482036000860152610e628282610dfd565b9150506020830151610e776020860182610e36565b508091505092915050565b6000610e8e8383610e45565b905092915050565b6000602082019050919050565b6000610eae82610dc0565b610eb88185610dcb565b935083602082028501610eca85610ddc565b8060005b85811015610f065784840389528151610ee78582610e82565b9450610ef283610e96565b925060208a01995050600181019050610ece565b50829750879550505050505092915050565b60006020820190508181036000830152610f328184610ea3565b905092915050565b60008115159050919050565b610f4f81610f3a565b82525050565b6000602082019050610f6a6000830184610f46565b92915050565b600073ffffffffffffffffffffffffffffffffffffffff82169050919050565b6000610f9b82610f70565b9050919050565b610fab81610f90565b8114610fb657600080fd5b50565b600081359050610fc881610fa2565b92915050565b600060208284031215610fe457610fe3610ae2565b5b6000610ff284828501610fb9565b91505092915050565b7f596f75206861766520616c726561647920766f7465642e000000000000000000600082015250565b6000611031601783610b84565b915061103c82610ffb565b602082019050919050565b6000602082019050818103600083015261106081611024565b9050919050565b7f496e76616c69642063616e64696461746520696e6465782e0000000000000000600082015250565b600061109d601883610b84565b91506110a882611067565b602082019050919050565b600060208201905081810360008301526110cc81611090565b9050919050565b7f4e487b7100000000000000000000000000000000000000000000000000000000600052603260045260246000fd5b7f4e487b7100000000000000000000000000000000000000000000000000000000600052601160045260246000fd5b600061113c82610aec565b91507fffffffffffffffffffffffffffffffffffffffffffffffffffffffffffffffff82141561116f5761116e611102565b5b600182019050919050565b7f4e487b7100000000000000000000000000000000000000000000000000000000600052602260045260246000fd5b600060028204905060018216806111c157607f821691505b602082108114156111d5576111d461117a565b5b50919050565b7f566f74696e6720686173206e6f742073746172746564207965742e0000000000600082015250565b6000611211601b83610b84565b915061121c826111db565b602082019050919050565b6000602082019050818103600083015261124081611204565b9050919050565b600061125282610aec565b915061125d83610aec565b9250828210156112705761126f611102565b5b82820390509291505056fea2646970667358221220fa46d35ec791e443e88d323c0023914902e999f5698aa4ebe4835771715d30c964736f6c634300080b0033",
  "linkReferences": {},
  "deployedLinkReferences": {}
}